:100000000C9434000C948F020C948F020C948F0289
:100010000C948F020C948F020C948F020C948F021C
:100020000C948F020C948F020C948F020C948F020C
:100030000C948F020C948F020C948F020C948F02FC
:100040000C948F020C948F020C948F020C948F02EC
:100050000C948F020C948F020C948F020C948F02DC
:100060000C948F020C948F0211241FBECFEFD8E0A6
:10007000DEBFCDBF0E946D000C948402F894FFCFC8
:100080002020202000436F64652041636365707405
:1000900065640020202020202020202020202020F7
:1000A00020202000496E636F727265637420436F75
:0300B00064650084
:1000B3003132334134353642373839432A302344D9
:0100C300003C
:0C00C400456E74657220436F64653A005D
:0500D000343332310061
:0500D50031323334005C
:1000DA00CF93DF9300D000D00F92CDB7DEB71FEFDA
:1000EA001AB90E9426022FEF86E791E0215080403C
:1000FA009040E1F700C0000061E081E00E94FD014C
:10010A0064EC70E080E00E946C028FE084B915B85C
:10011A0015B987B1816087B988B18E7F88B9FE0128
:10012A00319685E0DF011D928A95E9F701E00E9488
:10013A007201182F8823D9F38134C9F40230B8F038
:10014A000150E02FF0E0319781E090E08C0F9D1F85
:10015A00E80FF91F108262E0802F0E94FD0180E201
:10016A000E94D00162E0802F0E94FD01AFC01334CB
:10017A00C1F409C0E1E0F0E0EC0FFD1FE80FF11D4A
:10018A0010828F5F01C080E08530A0F362E081E0D9
:10019A000E94FD0160E870E080E00E946C0201E0CC
:1001AA0095C0143409F07BC0E02FF0E03197CE01FE
:1001BA000196E80FF91F10826C01A0E8EA2E25EDDE
:1001CA0030E040E08E2DB6010E944B02892BE1F40B
:1001DA0062E081E00E94FD0165E870E080E00E9433
:1001EA006C028FE39CE90197F1F700C0000062E01E
:1001FA0081E00E94FD0163E970E080E00E946C02E8
:10020A0088B1816088B93DC020ED30E040E08E2D94
:10021A00B6010E944B02892BE1F462E081E00E9460
:10022A00FD0165E870E080E00E946C02AFE3BCE982
:10023A001197F1F700C0000062E081E00E94FD0121
:10024A0063E970E080E00E946C0288B18E7F88B911
:10025A0018C062E081E00E94FD0164EA70E080E07B
:10026A000E946C028FE39CE90197F1F700C000003D
:10027A0062E081E00E94FD0163E970E080E00E9493
:10028A006C0280E008C0E1E0F0E0EC0FFD1FE80F2F
:10029A00F11D10828F5F8530B0F301E017C0053081
:1002AA00A8F4E02FF0E03197A1E0B0E0AC0FBD1F59
:1002BA00EA0FFB1F1083EE24E394E00E62E0802F26
:1002CA000E94FD01812F0E94D0010E2D8FE39CE92F
:0A02DA000197F1F700C000002ACFE1
:1002E40030E02BC041E050E0032E02C0440F551F04
:1002F4000A94E2F7409545B98AE18A95F1F700C07E
:1003040024E018C083B190E0022E02C09595879531
:100314000A94E2F780FD0DC0832F880F880F820FA7
:10032400845090E0A0E08D549F4FAF4FFC01849126
:1003340008952F5F283030F33F5F343098F280E027
:0203440008951A
:10034600982F907F9BB99BB19E7F9BB99BB19D7F58
:100356009BB99BB194609BB995E09A95F1F7000023
:100366009BB19B7F9BB98295807F8BB98BB18E7F2A
:100376008BB98BB18D7F8BB98BB184608BB985E0DE
:100386008A95F1F700008BB18B7F8BB98FE39FE1E4
:0A0396000197F1F700C00000089580
:1003A000982F907F9BB99BB191609BB99BB19D7F2A
:1003B0009BB99BB194609BB995E09A95F1F70000C9
:1003C0009BB19B7F9BB98295807F8BB98BB18160FC
:1003D0008BB98BB18D7F8BB98BB184608BB985E084
:1003E0008A95F1F700008BB18B7F8BB98FE39FE18A
:0A03F0000197F1F700C00000089526
:1003FA00CF93DF9300D000D0CDB7DEB790E89983D2
:10040A0090EC9A8394E99B8394ED9C83E62FF0E029
:10041A00319721E030E02C0F3D1FE20FF31F90814E
:10042A00890F81500E94A3018FE99FE00197F1F79C
:10043A0000C000000F900F900F900F90DF91CF91A6
:02044A00089513
:10044C0082E00E94A3018FE99FE00197F1F700C0C1
:10045C00000088E20E94A3018FE99FE00197F1F769
:10046C0000C000008EE00E94A3018FE99FE001977D
:10047C00F1F700C0000081E00E94A3018FE39FE12F
:0A048C000197F1F700C00000089589
:10049600CF92DF92EF926B01E82EF6018491E7FC92
:1004A6008081F901549147FD508185130BC0882343
:1004B60041F08FEFC81AD80AE80A2F5F3F4F4F4F17
:1004C600ECCF582F90E0851B9109EF90DF90CF90ED
:0204D600089587
:1004D800CF92DF92EF92A82FCB0104C00E94D001E7
:1004E800AE2DC6016C01EA2E2FEFC21AD20AE20A1B
:1004F800FC0184918111F2CFEF90DF90CF900895A5
:10050800EC010E9494020E949302CE010E9495027F
:06051800CE010E949102D9
:04051E000C94000039
:040522000E943E00F5
:02052600089536
:02052800089534
:02052A00089532
:00000001FF
